:100000006F00606713000000130000001300000081
:100010001300000013000000130000001300000094
:100020001300000013000000130000001300000084
:08003000130000007300100032
:1000380000000000000000007A0300007E030000BA
:1000480000000000BC0500000000000000000000E7
:10005800BE050000C0050000000000000000000010
:10006800C205000000000000C405000000000000F8
:10007800C6050000C8050000CA050000CC05000040
:10008800CE050000D0050000D2050000D405000010
:10009800D6050000D8050000DA050000DC050000E0
:1000A800DE050000E0050000E2050000E4050000B0
:1000B800E6050000E8050000EA050000EC05000080
:1000C800EE050000F0050000F2050000F405000050
:1000D800F6050000F8050000FA050000FC05000020
:1000E800FE050000000600000206000004060000ED
:1000F80006060000080600000A0600000C060000BC
:100108000E0600001006000012060000140600008B
:1001180016060000180600001A0600001C0600005B
:100128001E0600002006000022060000240600002B
:1001380026060000280600002A0600002C060000FB
:100148002E060000300600003206000034060000CB
:1001580036060000380600003A0600003C0600009B
:100168003E0600004006000042060000440600006B
:1001780046060000480600004A0600004C0600003B
:100188004E0600005006000052060000540600000B
:1001980056060000580600005A0600005C060000DB
:1001A8005E060000600600006206000064060000AB
:1001B80066060000680600006A0600006C0600007B
:1001C8006E0600007006000072060000740600004B
:1001D8000000000000000000000000000000000017
:1001E8000000000000000000000000000000000007
:0801F8000000000000000000FF
:10020000397101436EC619A0397141536AC866CA73
:1002100062CC5ECE19A0397101535AD056D252D455
:100220004ED64AD826DA22DC06DE330161408282CD
:1002300041114AC026C222C406C68282B24D410183
:10024000024D924C224CB24B4101024B924A224A3F
:10025000B2494101024992442244B24041018280A4
:100260003D432A876373C3029377F700BDEFADE583
:10027000937606FF3D8ABA960CC34CC30CC74CC795
:100280004107E36BD7FE11E28280B306C3408A06C2
:100290009702000096966780A6002307B700A30682
:1002A000B7002306B700A305B7002305B700A304D2
:1002B000B7002304B700A303B7002303B700A302CA
:1002C000B7002302B700A301B7002301B700A300C2
:1002D000B7002300B700828093F5F50F9396850051
:1002E000D58D93960501D58D61B79396270097021A
:1002F000000096968682E78086FA9680C1171D8F49
:100300003E96E374C3F8A5B70CA132A123220500E1
:1003100014C582801421C147054763E7D702322103
:1003200015471DC20C45094785C1B1473387F60201
:100330009387C182BA978847114719E58CC794A360
:10034000B2A323A2070001473A858280EFF25FEE55
:100350001384C18241119304040C184411CB3E2034
:100360005440B69763F6A7002AC60297324548C0A4
:100370003104E31494FE4101F1BD7300203001A06B
:10038000EFF21FEB372500001305C5D7EF00101162
:10039000D1B5EFF2FFE937250000130545D8EF008E
:1003A000F00F4DBDEFF2DFE8372500001305C5D88B
:1003B000EF00D00E45B5EFF2BFE73725000013057B
:1003C00045D9EF00B00D79B5EFF29FE63725000073
:1003D0001305C5D3EF00900CB5BDEFF27FE55D715D
:1003E0000945F92EE523716513050520252DB7076D
:1003F000002083A5070737250000130545D5EF002A
:10040000A07837250000130545D6EF003009B70660
:100410000000938606381306400681454808ED35EE
:10042000B7060000938626391306401F854508103D
:10043000E13DB70600009386463A1306803E8945A3
:100440006810D935B70600009386663B1306007D19
:100450008D452818553DB706000005669386863CF5
:1004600013068638A945C800453531464C080A852B
:100470009D250A85453531460C100A85A92D0A852A
:10048000513D31466C100A85B9250A8561353146E2
:100490002C180A8589250A85B53D3146CC000A8588
:1004A0001D2D0A85853D23AC0180138481811C406C
:1004B000054585071CC081230840493DCDBFB717BE
:1004C00002409843B706FFF841111367170098C31D
:1004D000D84337060200758FD8C39843B706F7FE96
:1004E000FD16758F98C39843B706FCFFFD16758FF0
:1004F00098C3D843B70681FFFD16758FD8C39843BC
:10050000B70600ECFD16758F98C33707FF0098C734
:1005100023A6070202C402C69843C166558F98C33A
:10052000B716024005679C42F18F3EC6A247850779
:100530003EC4B24781E7A247E397E7FEB717024000
:100540009C431397E7006357070685473EC632472B
:100550008547631FF704B7170240D843B706C1FFAA
:10056000FD16D8C3D843D8C3D84313670740D8C3B0
:10057000D843758FD8C3D843B7061D00558FD8C34D
:100580009843B7060001558F98C3984393166700A8
:10059000E3DD06FED843B7160240719BD8C3D843AB
:1005A00013672700D8C32147DC42B18BE39EE7FEE7
:1005B0004101828002C661BF01A001A001A001A08B
:1005C00001A001A001A001A001A001A001A001A023
:1005D00001A001A001A001A001A001A001A001A013
:1005E00001A001A001A001A001A001A001A001A003
:1005F00001A001A001A001A001A001A001A001A0F3
:1006000001A001A001A001A001A001A001A001A0E2
:1006100001A001A001A001A001A001A001A001A0D2
:1006200001A001A001A001A001A001A001A001A0C2
:1006300001A001A001A001A001A001A001A001A0B2
:1006400001A001A001A001A001A001A001A001A0A2
:1006500001A001A001A001A001A001A001A001A092
:1006600001A001A001A001A001A001A001A001A082
:1006700001A001A001A0970100209381A11F178173
:10068000002013012198171500001305257B9705FD
:100690000020938525971386818163FAC500832204
:1006A000050023A0550011059105E3EAC5FE138559
:1006B00081819385018F6377B500232005001105A3
:1006C000E36DB5FEFD42739002BCED427390428033
:1006D000B76200009382820873A002309702000084
:1006E0009382C29593E2320073905230EFF03FDD77
:1006F000970200009382A2CE7390123473002030D0
:100700009C4513F7070113F8F70001C7D841336878
:10071000E8008E2113F7F50F39C318418146854E45
:100720003D4F930F800293028004214E3396DE00EA
:10073000B3F8C500631116039398260033131F0105
:100740001343F3FF3377E300B318180133E7E800EE
:10075000639FF70550C98506E39AC6FD18C11307C4
:10076000F00F6375B70454412146854E3D4F930FFA
:10077000800293028004414EB398CE0033F71501F6
:100780006392E8021317260001173313EF00134397
:10079000F3FFB376D3003317E800D98E639DF701DA
:1007A000232A15010506E319C6FD54C18280E3948E
:1007B00057FA10C94DB7E39757FE23281501DDB747
:1007C00023AEA1808280371702405C439146B18BF3
:1007D0006385D700A1466382D706B7177A0093874F
:1007E00007201CC1371602405C4237070020130760
:1007F00007009183BD8BBA9794231C41B3D7D700D0
:100800005CC15442A1829D8ABA969422B3D6D70085
:1008100014C55442AD829D8A36971823B3D7E7009A
:100820005CC55842398393763700138741803697E9
:100830001823B3D7E7021CC982805C435443416745
:10084000C983F98E37F7FF1F0327C770BD8B890750
:100850001316170163480600454601476392C70215
:10086000C94739A809476389E7023D476388E7021A
:1008700041476388E702454601476393C700C14784
:1008800085E6B746024083A60680C18A8DC6B716A4
:100890007A009386062025A00147D9B70547B547BA
:1008A000C5B70147BD47E9BFB7160240D44213960A
:1008B000E600E35E06FCB7163D0093860690B3871C
:1008C000D7021CC105D31C41858321BF99C53717A9
:1008D00002401C4F5D8D08CF8280B7170240984FB1
:1008E0001345F5FF798D88CF8280EFF27F9416292A
:1008F000F577FD17F58FF621DA257971D58F1EA9C9
:100900005625FD779387379FF58FD6212A842EC6EB
:10091000D58F9625D58FB625D58F5EA55E29C207C2
:10092000C18393F7F7CFD98F5EA96808693DB747B0
:10093000014093870780B245631AF404A2575624F6
:100940006547B387E702C206C186984163D20604B1
:10095000060752244206B3D7E70213074006418632
:10096000B3D6E702B3F7E7029206635506028E0795
:1009700093872703B3D7E70213F77700B367D7004E
:10098000C207C1831EA445616FF0DF8C925745BF3B
:100990000A07C1B7920793872703B3D7E702BD8B36
:1009A000D58FF9BF91C55E250967D98F5EA5828075
:1009B0005A25F977FD17F98FD5BF93F5F51F4EA18D
:1009C00082800A216D8D3335A0008280B707002018
:1009D00083A7070737177A0013070720B3D7E70263
:1009E00093F7F70F2381F1821307803EB387E70265
:1009F0002390F1828280B7F700E0D8438146799B4B
:100A0000D8C303D701823306A70290CBD4CB984337
:100A10001367170398C3D843058B75DF9843799BF9
:100A200098C38280EFF2DF802A8411650111854529
:100A30001105693D930700207C82371501408D47E1
:100A40003EC44C00E147130505803EC6553922C817
:100A500037440140B70708000C08130504803ECC5A
:100A600002CA231E010051358545130504801D3F30
:100A700005616FF02FFEEFF20FFAB7440140AE8927
:100A80003289014493840480634524014A856FF0D0
:100A9000CFFB9305000426852D3765DDB3878900DC
:100AA0008385070026850504C205C1813937E9BF62
:100AB000138781801C439386018F3E95636BD5001D
:100AC000B78600209386068063E5A60008C33E85AE
:100AD0008280FD57EDBFB3C7A5008D8B3307C500DE
:100AE00081E78D4763EDC700AA87637EE5089421FF
:100AF00085078505A38FD7FEE3EBE7FE828093761B
:100B00003500AA8789CA942185078505A38FD7FE5A
:100B100093F63700C5BF9376C7FF138606FE63F0D2
:100B2000C70683A3050083A2450083AF850003AFFA
:100B3000C50083AE050103AE450103A3850183A86B
:100B4000C5019385450223A0770003A8C5FF23A212
:100B5000570023A4F70123A6E70123A8D70123AA5E
:100B6000C70123AC670023AE17019387470223AE6A
:100B700007FF75B790419107910523AEC7FEE3EBE0
:100B8000D7FEE3E6E7F6828039713EDA2ED232D420
:100B900036D63AD842DC46DE9387C18022CC8043E9
:100BA00026CA06CEAA8409C41C4C99E32285ED29E5
:100BB0000C4454102686228536C6EF007012F2408F
:100BC0006244D24421618280011126CA4AC806CEFD
:100BD00022CC4EC652C4AA842E8901C51C4D91E375
:100BE000E1219C4C804499E326857D2997170000DC
:100BF0009387071D631BF402C0405E24A18BB1C71D
:100C00001C48A1C7FD59294A1C4483450900FD170A
:100C1000B1E91CC463DD07062286A945268561204B
:100C2000FD576308F502294535A097170000938703
:100C3000271B6314F4008044C9B7971700009387FB
:100C40002716E31CF4FAC0444DBFA2852685112A5D
:100C500055D97D55F2406244D2444249B249224AB4
:100C6000056182801CC4050963D70700184C63CA5C
:100C7000E700638845011C401387170018C08CA348
:100C800061B7228626850520E31035F9D9B71C40C7
:100C90001387170018C0294798A371B79387C1809D
:100CA000AA85884315B7011122CC26CA4AC806CEA8
:100CB0004EC6AA842E89328401C51C4D91E3ED26CF
:100CC000971700009387C70F6317F406C0401C4CAA
:100CD0001CC45E24A18BC1C31C48B5CF1C4808406E
:100CE0009379F90F1379F90F1D8D5C486346F50070
:100CF000A2852685692C25E51C440505FD171CC425
:100D00001C401387170018C0238037015C48638894
:100D1000A7005E24858B81CBA9476316F900A285C5
:100D20002685B5240DEDF24062444A85D2444249FD
:100D3000B24905618280971700009387670A6314A0
:100D4000F400804469B79717000093876705E310A4
:100D5000F4F8C044ADBFA2852685212041D17D593C
:100D6000D9B741119387C18026C2844322C44AC0A7
:100D700006C62A892E8489C49C4C99E326852D2693
:100D8000971700009387C703631BF402C040031743
:100D9000C40093170701C18393F68700ADEA93F669
:100DA000070195EEA5472320F900136707045AA40D
:100DB0007D55B240224492440249410182809717F6
:100DC00000009387E7016314F4008044C9B79717C4
:100DD00000009387E7FCE31CF4FAC0444DBF918BFD
:100DE0009DC34C5889C9930744046384F5004A8520
:100DF0003123232A04025E242322040093F7B7FD43
:100E00005EA41C481CC05E2493E787005EA41C48B7
:100E100099EB5E241307002093F707286385E7000A
:100E2000A2854A85A1215E2413F717001DC35C48E3
:100E300023240400B307F0401CCC1C480145B5FB3B
:100E40008317C40013F707082DD793E707045EA4A0
:100E500085B7898B014791E3584818C4F9BFDE254F
:100E6000011122CC26CA06CE4AC84EC613F7870007
:100E7000AA842E8479EBD841634DE000B841634ADF
:100E8000E0000145F2406244D2444249B249056162
:100E9000828058547DD703A904009396370123A07C
:100EA000040063DB060670485E24918B99C75C40A2
:100EB0001D8E5C5899C33C401D8E5C540C5081467D
:100EC00026858297FD575A24631DF5009440F54707
:100ED00063E8D706B70740208507B3D7D700858BCF
:100EE000A5C31C48232204001CC09317370163D8F4
:100EF0000700FD576314F5009C4091E368C84C5807
:100F000023A02401BDDD930744046384F5002685F6
:100F1000F526232A0402B5B70C50014685462685DE
:100F20000297FD572A86E311F5F89C40B5DF754717
:100F30006385E70059476393E70423A0240191B731
:100F4000136707045AA47D5535BF83A90501E38AB9
:100F500009F203A905008D8B23A03501330939411E
:100F6000014791E3D84918C4E35D20F11C540C50AB
:100F7000CA864E86268582976347A0005E2493E743
:100F800007045EA4C9B7AA993309A940F1BF9C49D7
:100F9000B9CF011122CC06CE2A8411C51C4D81E7A0
:100FA0002EC61922B24597170000938767E1639B0D
:100FB000F5004C408397C50095C722856244F240F6
:100FC000056171BD97170000938787E16394F50071
:100FD0000C44CDB797170000938787DCE39CF5FCA2
:100FE0004C44C9BFF240624401450561828001451D
:100FF0008280411122C406C62A844EA572A52320F0
:1010000005002322050023240500232205062328AA
:101010000500232A0500232C0500214681451305E0
:10102000C505EFF0EFA397170000938747B15CD099
:1010300097170000938767B31CD497170000938716
:1010400047B75CD4971700009387A7B900D01CD886
:10105000B24022444101828097050000938565F3E8
:10106000A9A2411126C2130680069384F5FFB3841A
:10107000C4024AC02E8922C406C6938544071D2691
:101080002A8401CD2320050023222501310508C42F
:10109000138684068145EFF0AF9C2285B24022443E
:1010A00092440249410182801C4DADE3411106C6C4
:1010B00022C497070000938767FA1CD593870181A4
:1010C0009C432324050423260504232805046314D4
:1010D000F50085471CCD2A841D2848C02285052897
:1010E00008C422852D2048C4484001469145113747
:1010F00008440546A545F53D48440946C945D53D42
:1011000085471CCCB240224441018280828041113B
:101110009387018126C284434AC006C69C4C22C4E0
:101120002A8999E326854937938484048044DC40E6
:10113000FD1763D607009C40B9CF8440C5BF031795
:10114000C40039E7C1778507232204062320040061
:1011500023220400232404005CC423280400232A3F
:101160000400232C0400214681451305C405EFF03B
:101170002F8F232A0402232C040223240404232671
:1011800004042285B24022449244024941018280F3
:101190001304840671BF91454A85E13588C051FD2D
:1011A000B1472320F9000144E9BF797122D44AD024
:1011B00052CC56CA5AC85EC606D626D24ECE2A8A07
:1011C000AE8A130485040149054BFD5B09ECB2505E
:1011D00022544A8592540259F249624AD24A424BF9
:1011E000B24B45618280044483294400FD1963D4D5
:1011F00009000040E1BFDE24637BFB008397E4002D
:1012000063877701A6855285829A3369A900938402
:101210008406E9BF1971A6DAAE848395E500A2DCE5
:1012200086DE328463DB0500DE2423A0060093F70C
:10123000070885E7930700401DA0300836C6EF0079
:10124000D01FB246E34205FE7247BD67F98F79773A
:10125000BA9793B717009CC2F1BF930700041CC054
:10126000F6506654D654014509618280DE2501118D
:1012700022CC06CE26CA4AC8898B2E8489CF9307F2
:1012800074041CC01CC885475CC8F2406244D24448
:1012900042490561828074003000AA84A53FA245BE
:1012A0002A892685012219E98317C40013F707202C
:1012B00069FFF19B93E727005EA4D1B79707000071
:1012C0009387C7D99CD45E2408C008C893E7070851
:1012D0005EA4A2475CC8B24781CF8315E40026858F
:1012E000EF00501811C55E24F19B93E717005EA430
:1012F0005E243369F9002316240141BFDDC183A7B1
:10130000C5FF411122C406C626C21384C5FF63D39C
:1013100007003E94AA84EF00B01B938741829C4350
:1013200081EF2322040023A281822244B240268539
:10133000924441016F00F019637EF40014403307BA
:10134000D4006396E7009843DC43369718C05CC02E
:10135000D9BFBA87D84319C3E37DE4FE94433386EB
:10136000D700631F86001040B29694C33386D7001F
:10137000E31DC7FA10435843B29694C3D8C375B758
:101380006375C400B1479CC04DB71040B306C4009C
:101390006316D70014435843B29614C058C0C0C354
:1013A00069B78280011126CA93843500F19806CE70
:1013B00022CC4AC84EC6A104B14763F3F404B14439
:1013C00063E2B4042A89EF00B01093874182984306
:1013D0003A8439E0938781829C4391E781454A852D
:1013E000052F23A4A182A6854A851D27FD596319CF
:1013F0003507B1472320F9004A85EF00900D29A059
:10140000E3D004FCB1471CC10145F2406244D24420
:101410004249B249056182801C40858F63CF070233
:10142000AD4663F6F6001CC03E9404C031A05C409B
:101430006313870223A2F1824A85EF009009130506
:10144000B4009307440061993307F5405DDF3A9497
:10145000898F1CC05DBF5CC3C5B72287404095BF64
:10146000130435007198E30285FCB305A4404A8556
:101470004525E31C35FBB5BF1C46FD171CC663DACA
:101480000700184E63C5E700A9476394F5006FF0A5
:101490009F811C422E851387170018C28CA382805F
:1014A000011122CC26CA4AC84EC652C406CE2A8989
:1014B000AE893284B304D6007D5A6314940001458A
:1014C00001A80C204E864A85453F0504E31745FFD9
:1014D000F2406244D2444249B249224A05618280C4
:1014E000357122CD26CB4AC94EC706CF52C556C349
:1014F0005AC1DEDEE2DCE6DAAA89AE8432893684BD
:1015000001C51C4D91E34D36971700009387478B1B
:101510006397F40C83A44900DE24A18BFDC39C488F
:10152000EDC393070002A304F1029307000302D264
:101530002305F10222C6930B5002971A0000938AEA
:101540002A8C054C294B4A841C2099C3639E770D35
:10155000B30C2441638D0C00E6864A86A6854E8531
:101560008137FD57630FF51C9256E69636D21C2044
:101570006389071CFD571309140002C802CE3ECA36
:1015800002CCA309010482D483450900154656857F
:10159000252713041900C24751E913F7070109C7AA
:1015A00013070002A309E10413F7870009C7130713
:1015B000B002A309E104834609001307A002638F68
:1015C000E606F2474A848146254618209305140012
:1015D000130707FD6377E60AB5CA3ECE85A89707CD
:1015E00000009387E77F6395F40083A489002DB7FB
:1015F000970700009387C77AE390F4F283A4C900A9
:1016000021BFA6854E85EFF0CFF501DD7D55FA406F
:101610006A44DA444A49BA492A4A9A4A0A4BF65B6A
:10162000665CD65C0D618280050439BF3305554187
:101630003315AC00C98F3EC82289B9B7324793062B
:101640004700184336C6634707023ACE182093076F
:10165000E002631DF70418309307A002631BF70232
:10166000B2470904138747009C433AC663C1070287
:101670003ECA2DA83307E04093E727003ACE3EC884
:10168000F1B7B387670385462E84BA973DBFFD57F0
:10169000C5B7050402CA814681472546182093052F
:1016A0001400130707FD6374E606F9F20C200D46DB
:1016B0001705000013054575012511CD970700009A
:1016C000938787741D8D93070004B397A700424545
:1016D00005045D8D2AC80C20194617050000130566
:1016E000E572130914002304B102F92335C197F7F9
:1016F000FFFF9387279195E74247B247137707107B
:1017000009CF91073EC69257D2973ED22DBDB387DF
:10171000670385462E84BA9751B79D07E19BA107C1
:10172000D5B77800970600009386C6D726860C08A2
:101730004E8597000000E7000000FD572A8AE31459
:10174000F5FCDE2493F70704E39207EC1255C1B5CC
:101750007800970600009386E6D426860C084E850E
:10176000012AE1BF797156CA9C49BA8A984522D4A8
:1017700026D24ECE52CC06D64AD05AC85EC6AA89C8
:101780002E84B284368A63D3E700BA879CC00347AD
:10179000340419C385079CC01C4093F7070281C716
:1017A0009C4089079CC00329040013796900631ACF
:1017B0000900130B9401FD5B5C449840998F634CC6
:1017C000F9041C408346340493F70702B336D00073
:1017D000A5EB13063404D2854E85829AFD57630328
:1017E000F5041C4011469840998B544481446397FA
:1017F000C700B384E64063D3040081441C44184806
:101800006354F700998FBE94014969047D5B639826
:101810002405014509A885465A86D2854E85829AB7
:10182000631E75017D55B250225492540259F249FB
:10183000624AD24A424BB24B456182800509ADBF34
:101840003307D40013060003A301C704034754045D
:1018500093871600A2978906A381E7049DBF85465A
:101860002286D2854E85829AE30E65FB050945B72F
:10187000797122D426D24AD04ECE06D652CC56CA40
:101880005AC8B689942D930790063289AA842E846B
:1018900013863504638DF60263E2D706930780054D
:1018A0006385F61863EDD700638D06209307300437
:1018B000638EF60A930A24042301D404C9A0930773
:1018C00030066385F60A93074006E395F6FE1C4052
:1018D000084393F6070893054500C5C61C410CC391
:1018E00063D807001307D002B307F040A301E40454
:1018F0009706000093860652294765A893070007BC
:101900006381F61663E5D7029307E0066388F6184D
:101910009307F006E390F6FA0C401C4313F8050811
:10192000138547006307080608C39C4385A89307EF
:101930005007E383F6FE930780076388F612930748
:101940003007E399F6F61C43D04181459386470062
:1019500014C383AA07005685852601C53305554162
:1019600048C05C401CC8A301040461A81C43930A3E
:101970002404938647009C4314C32301F404854741
:10198000D5B793F607041C410CC3B9DAC207C18767
:1019900081BF93F5050408C3C9D99E231307F00638
:1019A0006386E60E970600009386C6462947A30184
:1019B00004044C400CC463C5050008406D9908C080
:1019C00099E3B28A89CDB28AB3F5E702FD1AB695DA
:1019D0008C212380BA00B3D5E70263FFE70AA14751
:1019E000631EF7001C40858B91CB58401C4863C791
:1019F000E70093070003A38FFAFEFD1A3306564152
:101A000010C84E87CA867000A2852685A13B7D5AE4
:101A1000631D450B7D55B250225492540259F24930
:101A2000624AD24A424B45618280A382D50497061E
:101A300000009386263E0C40084313F805081C411D
:101A40001105630D080208C313F7150001C793E5DC
:101A500005020CC04147A1FF0C4093F5F5FD0CC0F9
:101A6000B9B79C4193E707029CC193078007A30283
:101A7000F404970600009386263B75BF13F805040F
:101A800008C3E30308FCC207C1837DBF97060000BB
:101A900093864638214721BFAE873DB794411C430A
:101AA000CC4913F80608138547006306080008C3ED
:101AB0009C438CC339A008C393F606049C43F5DA13
:101AC0008EA323280400B28A2DBF14485686CA85E7
:101AD00026858299E30045F51C40898B8DE7B24746
:101AE0004844E35AF5F23E853DB785465686CA8599
:101AF00026858299E30065F3050A5C443247998F95
:101B0000E345FAFEE9BF014A930A94017D5BF5B70C
:101B1000411122C42A842E8523A6018E06C6EFE039
:101B20003FF9FD576317F5009387C18E9C4391C31E
:101B30001CC0B240224441018280411122C42E8443
:101B40008395E50006C67922634905007C48AA977B
:101B50007CC8B2402244410182805E247D777D179B
:101B6000F98F5EA4FDB7DE25011122CC26CA4AC832
:101B70004EC606CE93F70710AA842E843289B68902
:101B800091C78395E5008946014609225E247D7749
:101B90007D17F98F5EA48315E4006244F240CE867F
:101BA0004A86B24942492685D244056125A8411199
:101BB00022C42E848395E50006C6C928FD575A2401
:101BC000631AF500FD77FD17F98F5EA4B240224439
:101BD000410182808567D98F5EA468C8C5BF83959F
:101BE000E50005A8411122C42A842E85B2853686D7
:101BF00023A6018E06C6EFE01FE8FD576317F50028
:101C00009387C18E9C4391C31CC0B24022444101C2
:101C10008280411122C42A842E8523A6018E06C605
:101C2000C520FD576317F5009387C18E9C4391C370
:101C30001CC0B240224441018280411122C42A8446
:101C40002E85B28523A6018E06C6C920FD576317CF
:101C5000F5009387C18E9C4391C31CC0B2402244BF
:101C600041018280411122C42A842E8523A6018E3F
:101C700006C65D20FD576317F5009387C18E9C4310
:101C800091C31CC0B240224441018280411122C450
:101C90002A842E85B285368623A6018E06C6592053
:101CA000FD576317F5009387C18E9C4391C31CC0F9
:101CB000B24022444101828093F5F50F2A966314C5
:101CC000C500014582801C21E38EB7FE0505C5BF16
:101CD00082808280411122C42A842E85B285368674
:101CE00023A6018E06C6A920FD576317F50093872A
:101CF000C18E9C4391C31CC0B240224441018280EA
:101D00009307800523A6F18E7D5582809307800579
:101D100023A6F18E7D5582809307800523A6F18E40
:101D2000014582809307800523A6F18E7D55828030
:101D30009307800523A6F18E7D55828054656D70D2
:101D400065726174757265206973203A20333220A0
:101D5000430D000053797374656D436C6B3A2564D1
:101D60000D0A000054686973206973207072696EEF
:101D70007466206578616D706C650D005441534B3D
:101D800020300D005441534B20310D005441534B32
:101D900020320D005441534B20330D000000000051
:101DA0000000000000000000000000000000000033
:101DB0000000000000000000000000000000000023
:101DC0000000000000000000000000000000000013
:101DD0000000000000000000000000000000000003
:101DE00000000000000000000000000000000000F3
:101DF000000000000000000000000000232D302B38
:101E000020000000686C4C0065666745464700008E
:101E10003031323334353637383941424344454620
:101E200000000000303132333435363738396162E2
:081E3000636465660000000018
:101E38000000000001020304010203040607080968
:101E480000000000BC1D0000DC1D00009C1D0000FF
:101E5800000000000000000000000000000000007A
:101E6800000000000000000000000000000000006A
:101E7800000000000000000000000000000000005A
:101E8800000000000000000000000000000000004A
:101E9800000000000000000000000000000000003A
:101EA80000A24A0402040608600100201000002075
:081EB8001000002000000000F2
:00000001FF
